:020000040800F2
:1000000098D200209902000851490008F13E0008EA
:100010004D490008C5060008D5570008000000003B
:100020000000000000000000000000005949000826
:10003000A907000800000000554900085D490008B4
:10004000B3020008B3020008B3020008B3020008BC
:10005000B3020008B3020008B3020008B3020008AC
:10006000B3020008B3020008B3020008B30200089C
:10007000B3020008B302000891070008B3020008A9
:10008000B3020008B3020008B3020008B30200087C
:10009000B3020008B3020008B3020008B30200086C
:1000A000B3020008B3020008B3020008B30200085C
:1000B000B3020008B3020008B3020008B30200084C
:1000C000B3020008B3020008B3020008B30200083C
:1000D000B3020008B3020008B3020008654D00082F
:1000E000AD070008B3020008B3020008B30200081D
:1000F000B3020008B3020008B3020008B30200080C
:10010000B3020008B3020008B3020008B3020008FB
:10011000B3020008B3020008214A0008B302000835
:10012000B30200089D070008B3020008B3020008EC
:10013000B30200080000000000000000B302000845
:10014000B3020008B3020008B3020008B3020008BB
:10015000B3020008B3020008B3020008B3020008AB
:10016000B3020008B3020008B3020008B30200089B
:10017000B3020008B3020008650700080000000091
:1001800000000000B30200080000000000000000B2
:10019000B30200080000000000000000B3020008E5
:1001A000000000000000000000000000B302000892
:1001B000B3020008B3020008B3020008B30200084B
:1001C000B302000800F002F800F057F814A696E811
:1001D000000CB244B344DA4501D100F04EF8BAE85D
:1001E0000F000FA696E83000A5EB040504EB060708
:1001F000AAEB0704A7F101074FEA15154FEA3414DB
:10020000A4F10104AC4201D300F037F813F0010F60
:1002100018BFFB1A43F0010300F001F8DBE71847B1
:10022000905E0000B05E0000103A24BF78C878C12C
:10023000FAD8520724BF30C830C144BF04680C60EC
:1002400070470000704700000023002400250026AE
:10025000103A28BF78C1FBD8520728BF30C148BF29
:100260000B607047642900F0F780002070471FB5CD
:1002700005F05AFE1FBD10B510BD00F0E8F911469B
:10028000FFF7F5FF05F0E8FB00F006FA03B4FFF70F
:10029000F2FF03BC00F00EFA094880470948004706
:1002A000FEE7FEE7FEE7FEE7FEE7FEE7FEE7FEE726
:1002B000FEE7FEE704480549054A064B7047000083
:1002C0000D4A0008C501000898CC002098D20020F3
:1002D00098CE002098CE002053EA020C00F06980EE
:1002E0002DE9F04B4FF00006002B1FBFB3FA83F54A
:1002F00003FA05F424FA05F65E4012BF1643B2FA7B
:1003000082F502FA05F4C5F120051EBF22FA05FCAC
:1003100044EA0C04203556EA044C4FEA144418BF52
:10032000641C4FF000084FF00009904271EB030C81
:1003300039D3002919BFB1FA81F701FA07F6B0FAEB
:1003400080F700FA07F6C7F120071EBF20FA07FC66
:1003500046EA0C062037B6FBF4FCA7EB0507103F76
:1003600007F01F0BCBF120062CFA06F60CFA0BFB5C
:1003700044BFB3460026202FA4BF5E464FF0000BBB
:100380005BEA060C08BF4FF0010B19EB0B0948EBB9
:100390000608ABFB027C06FB02CC0BFB03CCC01BAC
:1003A00071EB0C01C1E70B46024641464846BDE8E9
:1003B000F08B13B5084318BF4FF0FF300146AFF381
:1003C0000080BDE81C4070470FB41CB5074B06AA5F
:1003D0007B4469460090059800F021F900206946A9
:1003E00000F030F91CBC5DF814FB00007102000045
:1003F0002DE9F0410E460446002020622046E168C7
:10040000884730B3252805D0D4E901219047206AD8
:10041000401CF2E7E168204600278847050018D015
:10042000A5F14100192802D820354FF40067324663
:10043000294620462760FFF715FF40B1012804D068
:10044000F61D26F007060836D8E7361DD6E72846FB
:10045000DAE7206ABDE8F0812DE9F0410646002484
:1004600010687529314616A510D0AFF3008000281A
:1004700002DA404213A507E031688A0701D512A5C8
:1004800002E0490704D511A5012401E0AFF3008083
:1004900000210A2206F1240709E0B0FBF2FCB0FBC0
:1004A000F2F302FB1C00303078541846491C002837
:1004B000F3D123462A463046BDE8F04100F051B85A
:1004C000000000002D0000002B00000020000000B4
:1004D00010B5431C02E010F8011B71B18107FAD17D
:1004E0004FF0013202C88C1A8C4314EAC211F9D0C1
:1004F000C01A0A0603D0C01E10BDC01A10BD0A04DF
:1005000001D0801E10BD0902FCD0401E10BD4FF06E
:10051000000200B5134694469646203922BFA0E853
:100520000C50A0E80C50B1F12001BFF4F7AF09075F
:1005300028BFA0E80C5048BF0CC05DF804EB890050
:1005400028BF40F8042B08BF704748BF20F8022B93
:1005500011F0804F18BF00F8012B704770477047AB
:1005600070472DE9F0470D4699469246044600F142
:1005700024080168880604D5E06921F01001216093
:1005800000E00120A84201DD471B00E00027A1692F
:100590007A1902EB0900081AA0612078C00602D47B
:1005A0002046AFF30080002608E0D4E901211AF8C4
:1005B00006009047206A401C761C20624E45F4DB02
:1005C0002078C0060AD52046AFF3008006E0D4E9C3
:1005D000012130209047206A401C2062381EA7F17C
:1005E0000107F4DC07E0D4E9012118F80500904781
:1005F000206A401C2062281EA5F10105F3DC20467C
:10060000AFF300802078000602D50220BDE8F08715
:100610000120FBE701694A1C02610878704700B5B8
:100620008FB0CDE901310021059105497944CDE92B
:10063000031011466846FFF7DBFE0FB000BD000057
:10064000E5FFFFFF0A6802F8010B0A607047754674
:1006500000F02CF8AE4605006946534620F007002E
:10066000854618B020B5FFF725FEBDE820404FF0C5
:1006700000064FF000074FF000084FF0000BAC46AB
:10068000ACE8C009ACE8C009ACE8C009ACE8C009F6
:1006900021F007018D46704710B50446AFF3008086
:1006A0002046BDE81040FFF7F1BD0000004870474C
:1006B0001000002001491820ABBEFEE72600020012
:1006C00070470000FEE70000806B816C496D0229D5
:1006D0001CBF012180F8351000F070B810B5846B94
:1006E000A36BA06C01680A6863B1A36BDB0717D129
:1006F00012F4002214D0C968E26B01EBC20100229F
:1007000016E000BF100319D40868000318D4E06B8A
:10071000D4E9102303EB80000861A26310E000BF5E
:100720000A6812030CD40969E26B01EBC2010122D1
:1007300000F0ACFAA06B0138A06301E0606CC86007
:10074000A06B216C884218BF10BD2068C16841F0C1
:100750000101C1600068800744BF012084F83500B2
:1007600010BD000080B540F27000C2F2000001210F
:10077000017040F22810C2F2000000F055FD40F276
:10078000D800C2F20000BDE8804000F01BB80000B5
:1007900040F28810C2F2000000F046BD40F228107E
:1007A000C2F2000000F040BD704700004FF400505E
:1007B00000F036BF72B600BFFEE7000070470000D1
:1007C0007047000070B50446006840F2C9660569CC
:1007D000C0F6000669071FD4A8072BD4E80639D451
:1007E000280705D5206808214161204600F04CFA11
:1007F000E80708BF70BD21680868800703D5C8688E
:1008000020F01E00C860C86820F001022046CA60BF
:10081000BDE87040FFF7D4BF04214161E06C40F0B7
:100820000200E06484F83510A06C066500F0EAFC74
:10083000A807D3D521680222A06C4A61E16C41F07F
:100840000101E164042184F83510066500F0DAFC4A
:10085000E806C5D5206810214161204600F054F813
:100860002807BFD4C4E70000002804BF0120704758
:100870002DE9F04F81B090F8351049B9002180F88A
:100880003410044600F042F8204600F03FF82046BD
:10089000022180F8351090E802514FF207040B68EE
:1008A000CFF6E07423400B60D0E90443856943EA46
:1008B0000E032343D0E9086743EA0C0300F1280A3A
:1008C0002B439AE8040633433B431A43D1F800B064
:1008D00042EA090242EA0A0242EA0B0242EA08023A
:1008E0000A60B8F1100F04BFC2698A61CA6842F099
:1008F0001E02CA6000210122C16480F8352001B0C7
:10090000BDE8F04F08467047704700002DE9F043FE
:1009100087B0804600680021C5F2050100278842A3
:10092000CDE90577CDE90377029703D007B0BDE89D
:10093000F08300BF43F630000197C4F20200416823
:10094000002541F0010141604168C4F2020501F057
:100950000101019101990197016802AE41F0100176
:10096000016001684FF0020901F010010191019945
:10097000019701680D2441F001010160016801F057
:100980000101019101990197016841F004010160A1
:10099000016801F00401019101990197016841F09A
:1009A00008010160016801F00801019101990197B6
:1009B000016841F0400101600068314600F04000EC
:1009C000019001987020029005F58050CDE90397C1
:1009D0000597069400F030FE5020CDE90209284624
:1009E0003146CDE90477069400F026FE4FF470708E
:1009F000CDE9020905F500603146CDE9047706949A
:100A000000F01AFE0820CDE9020905F540603146E4
:100A1000CDE90477069400F00FFE4FF40070CDE9A5
:100A2000020905F5C0503146CDE90477069400F07F
:100A300003FE40F2281546F22840C2F20005C4F237
:100A400002004FF480534FF480464FF000714FF492
:100A5000806285E88300C5E905364FF4003005F172
:100A600020034FF48074C5E903720421032287C375
:100A70002846EC612F6300F0B9FC002818BFFFF78F
:100A800099FE4E2000210022C8F84850C5F8388051
:100A900001F09AFA4E2001F085FA07B0BDE8F08324
:100AA00090F83410012904BF0220704790F83510E7
:100AB000052907D1022180F8351001680A6842F043
:100AC00001020A60002180F8341000207047000005
:100AD00070B582B0044690F8340001284FF002004F
:100AE00078D04FF0010E84F834E084F83500D4F863
:100AF00000C0A06CDCF80050002645F48045CCF81E
:100B00000050DCF80050B6EB134F25F00205CCF88E
:100B10000050DCF8005041EA0501CCF8001040F22A
:100B2000DD6140F2C965C0F60001C0F60005C16391
:100B3000C0E91356A663266404D10CF1280100F025
:100B400007FD3FE04164C4F838E0E3636264E16BB1
:100B5000B1F5803F28D30021E36B5B08E363A36B0F
:100B60005B00A363E36BB3F5803F1DD3E36B5B08CE
:100B7000E363A36B5B00A363E36BB3F5803F13D325
:100B8000E36B5B08E363A36B5B00A363E36BB3F509
:100B9000803F09D3E36B5B08E363A36B5B00A36354
:100BA000E36BB1EB134FD7D1A16B0239A163A16BFA
:100BB0002164E16BE66B02EB81030CF128010096E6
:100BC00000F06EF82068016841F00101016000202A
:100BD00084F8340002B070BD81B040F20801C2F266
:100BE0000001096842F293424908C9F24922A1FB77
:100BF00002129108009190F83410012904D10221C9
:100C0000084601B0704700BF90F835104FF0000C57
:100C100002294FF0000124D1052180F83510016828
:100C20000B6823F001030B60009B5A1E0092EBB18E
:100C30000A68D20714D0009A531E0093B2B10A6812
:100C4000D2070DD0009A531E00937AB10A68D207DA
:100C500006D0009A531E009342B10A68D207E3D12E
:100C6000002180F834C0084601B07047C16C41F0E3
:100C70002001C164012180F83510032180F834C0BF
:100C8000084601B07047000070470000D0F800C06F
:100C900010230020002A08BF0C234CF803107047D3
:100CA00070B58568802D05D14FF4807141650120B4
:100CB00070BD00BFC46B002C50D0446C002C4DD0D4
:100CC000C46C002C4AD090F83440012C4DD0012443
:100CD00080F8344090F83540012C43D1022480F84C
:100CE000354000244465D0F800C0049CDCF8006066
:100CF00046F20C4E46F48026C4F2020ECCF8006098
:100D0000CCF810300B46CCF80440402D04BF1346FD
:100D10000A460EF14C018C45CCF80830CCF80C207A
:100D200026D946F28841C4F202018C4564D046F2CD
:100D30007041C4F202018C4572D12021CEF800101E
:100D40001021CEF800100821CEF800100421CEF8B2
:100D500000100121CEF80010EEE100BF40214165F6
:100D6000012070BD002180F83410022070BD00BF4A
:100D700046F20801C4F2020101F1B002944519D90A
:100D800046F21043C4F2020346F228429C45C4F2E4
:100D9000020200F08780944500F0808046F24046D1
:100DA000C4F20206B4450CBF4FF400144FF00064C7
:100DB00079E000BF01F1500246F2100E46F27003D6
:100DC0009445C4F2020EC4F2020353D99C4500F0CC
:100DD000CF8046F28804C4F20204A44500F0C0802B
:100DE00046F2A004C4F20204A4450CBF4FF4001460
:100DF0004FF000644C60C1E04FF40061CEF8001089
:100E00004FF48061CEF800104FF40071CEF800105E
:100E10004FF48071CEF800104021CEF800108BE125
:100E20000EF194014FF000628C4508BF4FF40012A0
:100E3000CEF800204FF0806208BF4FF48012CEF849
:100E400000204FF000728C4508BF4FF40022CEF80E
:100E500000204FF0807208BF4FF48022CEF80020AF
:100E60004FF480028C4508BF4FF48032CEF800204A
:100E700062E100BFF44500F07F8046F22804C4F22E
:100E80000204A44570D046F24004C4F20204A44512
:100E90000CBF4FF400144FF000646EE04FF4006498
:100EA00001E000BF20249C45C1F8004410D09445C7
:100EB0000AD046F24046C4F20206B4450CBF4FF4D5
:100EC00080144FF0806404E04FF4806401E000BFC0
:100ED00010249C45C1F8004410D094450AD046F235
:100EE0004046C4F20206B4450CBF4FF400244FF054
:100EF000007404E04FF4007401E000BF08249C4536
:100F0000C1F8004410D094450AD046F24046C4F2DD
:100F10000206B4450CBF4FF480244FF0807404E007
:100F20004FF4807401E000BF04249C45C1F80044E4
:100F300012D094450CD046F24042C4F202029445CD
:100F40000CBF4FF480324FF48002C1F80024F3E06C
:100F50004022C1F80024EFE00122C1F80024EBE0B8
:100F60004FF400644C6009E04FF4006405E000BFFA
:100F700020244C6002E000BF20240C60944513D96B
:100F80009C452DD046F28804C4F20204A4451FD02B
:100F900046F2A004C4F20204A4450CBF4FF480142E
:100FA0004FF080644C6021E0F4451DD046F22804E7
:100FB000C4F20204A4450FD046F24004C4F2020475
:100FC000A4450CBF4FF480144FF080640DE000BFC7
:100FD0004FF480644C6009E04FF4806405E000BF8A
:100FE00010244C6002E000BF10240C60944513D91B
:100FF0009C452DD046F28804C4F20204A4451FD0BB
:1010000046F2A004C4F20204A4450CBF4FF400242D
:101010004FF000744C6021E0F4451DD046F22804E6
:10102000C4F20204A4450FD046F24004C4F2020404
:10103000A4450CBF4FF400244FF000740DE000BF36
:101040004FF400744C6009E04FF4007405E000BFF9
:1010500008244C6002E000BF08240C60944513D9BA
:101060009C452DD046F28804C4F20204A4451FD04A
:1010700046F2A004C4F20204A4450CBF4FF480243D
:101080004FF080744C6021E0F4451DD046F22804F6
:10109000C4F20204A4450FD046F24004C4F2020494
:1010A000A4450CBF4FF480244FF080740DE000BFC6
:1010B0004FF480744C6009E04FF4807405E000BF89
:1010C00004244C6002E000BF04240C60944513D952
:1010D0009C452BD046F28802C4F2020294451FD0F0
:1010E00046F2A002C4F2020294450CBF4FF48032D3
:1010F0004FF480024A601FE0F4451BD046F22802FC
:10110000C4F2020294450FD046F24002C4F2020239
:1011100094450CBF4FF480324FF480020BE000BFC7
:1011200040224A6008E000BF402204E001224A60F9
:1011300002E000BF01220A60DCF8001041F0160155
:10114000CCF80010DCF8141041F08001CCF8141039
:10115000016C09B9806C28B1DCF8000040F008008F
:10116000CCF80000DCF8000040F00100CCF80000F2
:10117000002070BD70B5866D044600F03BFB94F80E
:101180003510022928D105462068216C026822F01A
:1011900016020260426922F08002426109B9A16C24
:1011A00019B1016821F008010160016821F0010115
:1011B000016000BF20680068C00715D000F01AFB6E
:1011C000401B0628F6D320206065032084F83500F4
:1011D000002184F8341070BD80206065012000215A
:1011E00084F8341070BD00BFE06D3F2101FA00F0BB
:1011F000B060012084F835000020002184F834100C
:1012000070BD000090F83510022909D1052180F841
:1012100035100068016821F001010160002070476D
:101220008021416501207047F0B581B00021009117
:1012300040F20801C2F200010B68D0E9166148F2E1
:10124000B51537680822C1F64E358A403A42A3FBED
:1012500005350CD003681C68640708D51C6824F0A9
:1012600004041C60B260426D42F00102426501223A
:101270008A403A4208D003685B691B0604D5B26015
:10128000426D42F00202426504228A403A4208D08E
:1012900003681B689B0704D5B260426D42F00402EC
:1012A000426510228A403A4219D001680B681B0738
:1012B00015D5B2600B680A685B0309D4D20509D45E
:1012C0000A6822F008020A60016C29B907E000BF31
:1012D000110341D4016C11B1044688472046C26D08
:1012E000202101FA02F33B4243D001680F68FF0658
:1012F0003FD5B36090F835700B68052F1CD123F0F3
:1013000016030B604B6923F080034B61036C0BB930
:10131000836C1BB10B6823F008030B603F219140E5
:10132000B160012180F83510016D0022002980F89C
:10133000342054D158E000BF0A685B0310D4D205B2
:1013400012D40A6822F010020A60012180F83510D8
:10135000002180F8341007E0816C0029BCD1BEE781
:10136000110301D4416C00E0C16B11B10446884700
:101370002046416DC1B3416DC9072ED0052180F8CB
:1013800035100168AA0A0B6823F001030B60009B6B
:101390000133934200931AD80B68DB0717D0009BE8
:1013A00001339342009312D80B68DB070FD0009BE8
:1013B0000133934200930AD80B68DB0707D0009BE8
:1013C00001339342009302D80B68DB07DFD1012180
:1013D00080F83510002180F83410C16C21B101B0C3
:1013E000BDE8F040084700BF01B0F0BD2DE9F04175
:1013F000044600F0FFF9ECB10546022084F8350000
:101400000020216884F83400086820F0010008609A
:1014100021680868C00711D000F0ECF9401B0528CE
:10142000F6D9032520230320636584F83550BDE8F1
:10143000F08100BF0120BDE8F08100BF086848F2DC
:101440003F02CFF21002D4E9013500EA020C04F1A8
:101450000C0898E8C10143EA0C032B431843D4E974
:10146000072E304338431043626A40EA0E00042AD4
:1014700040EA08031CD1206BD4E90A2E40EA0E0092
:10148000184308604869BEF1000F20F0030040EAED
:10149000020040F0040C11D0B8F5005F36D0B8F16E
:1014A000000F45D1022A46D0012A3BD032B942E092
:1014B0000B60486920F0070040EA020C01F0F800D8
:1014C0004AF6AB221038CAF6AA22A0FB02231A0958
:1014D00046F25803C1F814C0C0F600039A5C40F20B
:1014E000FF335F284FF03F0021EA030100FA02F0CA
:1014F00088BF0431C4E9161288600023012500204A
:10150000636584F83550BDE8F08100BF032AD5D863
:10151000012540230120DFE802F0030E030500BF90
:1015200082E700BFAEF1C070B0FA80F0400904E07D
:10153000032A04D3C2D1CEF300600028BED0012517
:1015400040230120636584F83550BDE8F081000038
:1015500090F834C0BCF1010F04BF0220704770B591
:101560004FF0010C80F834C0D0F858E090F835C046
:10157000BCF1010F38D14FF0020C80F835C04FF0AC
:10158000000CC0F854C0D0F800C08468056CC06D71
:10159000DCF80060402C26F48026CCF80060CCF803
:1015A00004300B4604BF13460A463F2101FA00F0FF
:1015B000CCF80830CCF80C20CEF80800DCF800009D
:1015C00040F01600CCF800002DB1DCF8000040F02F
:1015D0000800CCF80000DCF8000040F00100CCF876
:1015E0000000002070BD00BF002180F834100220F0
:1015F00070BD0000B0B5044600F0FCF8054640F2AE
:101600000000C2F200000078611C18BF044400BF53
:1016100000F0F0F8401BA042FAD3B0BD70470000C4
:1016200043F61441C4F201010A68024214BF086083
:101630007047FFF7F3BF00002DE9F04F83B000F1D2
:10164000200200F13E4741F60005009207F1FF77C6
:10165000C4F2020507224FEAB726A84208BF0622B5
:1016600000254FF000084FF00009062E38BF4FEA62
:10167000B72201920AE000BF09F1010908F102084E
:10168000B9F1100F05F1040500F0A2800F680122E6
:1016900002FA09FE17EA0E0AEED0D1F804C00322BE
:1016A0000CF003077E1E02FA08F4012E6FEA040B09
:1016B00012D88468CE6804EA0B0406FA08F63443AC
:1016C0008460446824EA0E06CCF3001404FA09F49A
:1016D0002643466004E000BF032F01D103271EE02C
:1016E000C6688C6806EA0B0604FA08F42643022F43
:1016F000C66014D16FF00302009E02EA590756F843
:1017000007C005F01C040F220B69A2402CEA02025C
:10171000A3401A43F251D1F804C00CF00307026849
:1017200007FA08F302EA0B021A431CF4403F026076
:10173000A2D0002243F644030292C4F202031A68C4
:1017400043F6004442F480421A601A68C4F201046D
:1017500002F480420292029A29F003024FF6084CEA
:101760002244CFF6FF7C52F80C3005F00C070F2610
:10177000BE40B343019E06FA07F73B4342F80C30E4
:10178000A2684B6842EA0A0743F60C4CDE0258BFD7
:1017900022EA0A07A760C4F2010CDCF800209E02CE
:1017A00042EA0A0758BF22EA0A07CCF800706268CA
:1017B0009E0342EA0A0758BF22EA0A0767602268C6
:1017C000DB0342EA0A0758BF22EA0A07276053E709
:1017D00003B0BDE8F08F0000426902EA01039143C3
:1017E00041EA034181617047002A08BF0904816111
:1017F000704700004CF69040C2F20000006870474D
:10180000002804BF01207047F0B581B0044690F86D
:101810003D0028B9002084F83C00204600F01EFB63
:10182000242084F83D002068016821F00101016056
:10183000016841F400410160016821F40041016048
:1018400001F07AF8636848F2A16CC0F2010C40F62E
:101850000011C0F23D0163453CBF48F28041C0F237
:101860001E01884202D2012001B0F0BD4DF6836115
:10187000C4F21B31A0FB01122168970CD1F804E0DF
:101880004FF496762EF03F0545EA92454D6077433A
:1018900048F638160D6AC0F24106A7FB067625F019
:1018A0003F07634538BF960C721C3A430A62CA6907
:1018B00048F2A0664CF6FF77C0F20106B34222EA76
:1018C00007020BD801385B00B0FBF3F001306FF377
:1018D0001F30042898BF04201BE000BFA768013810
:1018E00057B119277B43B0FBF3F001306FF31F3082
:1018F00070B100F5804007E003EB4303B0FBF3F069
:1019000001306FF31F3018B100F5004001E000BF57
:1019100001201043C8610868D4E9072320F0C00003
:10192000104318430860886848F2FF3204F10C073E
:1019300090438CCF18431043A6698860C86820F094
:10194000FF0038433043C860086840F00100086079
:1019500000202021206484F83D10206384F83E009C
:1019600001B0F0BD2DE9F04383B01F46164689460D
:101970000446FFF73FFF94F83D10202924D1054687
:10198000206800BF816989071AD5FFF733FF411B23
:1019900020681A29F6D381698907F3D50020202110
:1019A000206384F83D1084F83E00216C41F0200152
:1019B000216484F83C00022003B0BDE8F08300BF3E
:1019C00094F83C10012903D1022003B0BDE8F08354
:1019D000012184F83C100168C90703D1016841F076
:1019E00001010160016840F2040821F40061016016
:1019F000222184F83D10102184F83E10002121643A
:101A000066626785618DC0F201082185A8F5003105
:101A10000439E162E16A02680A9F42F4806211F5CA
:101A2000803F026018BF012942D1016841F48071F2
:101A3000016020464FF0011100223B46009502F064
:101A4000B7FA58B120680068C00544BF4FF4007071
:101A50002064012003B0BDE8F08300BF2069B0F529
:101A6000804F2BD149F00100C0B221683A4608618D
:101A7000A8F1020120462B4602F080FB0028E8D1A5
:101A8000208D00285AD002284ED001286ED121681E
:101A90000A6822F480620A60002202924A69029275
:101AA0008A690292029A0A6842F400720A6078E037
:101AB0000829BAD0216B1129B7D0BAE7062000EA6D
:101AC000D916206806F1F001016108F104012046F1
:101AD0003A462B4602F052FB0028BAD120685FFA42
:101AE00089F10161A8F1020120463A462B4602F035
:101AF00045FB0028ADD100200290206800224169FA
:101B00003B460291816902910299016841F480711A
:101B1000016020464FF00111009502F049FA0028BB
:101B200090D146F0F100A0E721680A6822F48062B3
:101B30000A600A6842F400621CE000BF00200290C4
:101B4000206841690291816902910299016841F41A
:101B500000710160202084F83D00002084F83E00E0
:101B600084F83C0003B0BDE8F08300BF21680A6838
:101B700042F480620A60002202924A6902928969F4
:101B8000029102990DE000BF10690870606A218D12
:101B900001306062481E2085618D01396185010434
:101BA000D8D080B203280FD802284AD001282DD1DE
:101BB000204639462A4602F04DFB00287FF449AF03
:101BC0002068616A0069E0E7204639462A4602F04B
:101BD00041FB00287FF43DAF2068616A006908700E
:101BE000606A2268411C208D616201382085638D06
:101BF000013B638553695B07D1D580B20328C3D10C
:101C0000106820F480601060BEE700BF20464146A7
:101C100000223B46009502F0CBF900287FF419AF73
:101C20002068616A026822F48062026000690870BC
:101C3000606A218D01306062481E2085608D013808
:101C400060852046414600223B46009502F0B0F9EF
:101C500000287FF4FEAE2068616A026842F40072D8
:101C6000026000690870606A2268411C6162218D0F
:101C700001392185618D013961851169417085E7DF
:101C80002DE9F04383B01E46174689460446FFF708
:101C9000B1FD94F83D10202924D10546206800BFED
:101CA000816989071AD5FFF7A5FD411B20681A290C
:101CB000F6D381698907F3D500202021206384F8B9
:101CC0003D1084F83E00216C41F02001216484F82D
:101CD0003C00022003B0BDE8F08300BF94F83C1044
:101CE000012903D1022003B0BDE8F083012184F86B
:101CF0003C100168C90703D1016841F0010101608E
:101D0000016840F2020821F400610160212184F899
:101D10003D10102184F83E10002121646762668521
:101D2000618DC0F201082185A8F10211E162E16A2A
:101D30000A9E11F5803F18BF01291DD1016841F4A9
:101D40008071016020464FF001110022334600955A
:101D500002F02EF950B120680068C00544BF4FF46E
:101D600000702064012003B0BDE8F0832069B0F565
:101D7000804F07D1FE2015E00829DFD0216B122902
:101D8000DCD0DFE7062000EAD9102168F0300861D6
:101D900008F10601204632462B4602F0EFF90028F2
:101DA000E0D1FF20216800EA090008612046414691
:101DB00032462B4602F0E2F90028D3D100200290EF
:101DC00020684169029180690290029806E000BF94
:101DD000204631462A4602F08DF818BB208D68B3A4
:101DE000204631462A4602F07DFAD8B9606A216859
:101DF000024612F8013B0B616262628D013A628514
:101E0000228D531E23854F697F07E1D51B04DFD048
:101E1000437802300B616062608D01386085901EEE
:101E20002085D5E7206C04289CD12068016841F406
:101E300000710160012003B0BDE8F08320680168F3
:101E400041F400710160202084F83D00002084F8F6
:101E50003E0084F83C0003B0BDE8F083B0B586B026
:101E600045F600010068C4F2000100248842059490
:101E7000CDE903440294019402D006B0B0BD00BF86
:101E800043F630050094C4F202052868122240F09F
:101E900020002860286800F02000009000980320AF
:101EA000019004900420059001F5DE3001A9CDE9F0
:101EB0000224FFF7C1FB0094286940F480002861E8
:101EC000286900F480000090009806B0B0BD0000C2
:101ED00040F200004CF69041C2F20000C2F2000154
:101EE00000780A68104408607047000080B543F627
:101EF0000040C4F20200016841F400710160016811
:101F000041F480610160016841F480710160032047
:101F100000F086F8002000F005F800F027F8002017
:101F200080BD000070B540F20006C2F2000640F22B
:101F300008013278C2F200014FF47A730968B3FBEA
:101F4000F2F20446B1FBF2F1084600F05DFF0F2CFF
:101F50004FF0010508D838B94FF0FF302146002274
:101F6000002500F031F87460284670BD82B0002072
:101F700043F640010190C4F202014A6842F48042F3
:101F80004A604A6802F480420192019A009008680F
:101F900040F080500860086800F080500090009881
:101FA00002B07047002848BF704700F01F010122AF
:101FB00002FA01F11C2202EAD0004EF20012CEF227
:101FC000000281507047000010B54EF60C5CCEF256
:101FD000000CDCF80030C3F3022E8EF00704042C52
:101FE00028BF0424BEF103034FF0FF3E0EFA04F4B1
:101FF00038BF0023A14399400EFA03F39A431143DB
:1020000000F00F0200F160430901043A03F5644354
:102010006244002848BF02F10C03197010BD000093
:102020004EF60C51CEF200010A684FF6FF031A403B
:1020300060F30A2242F0806040F0FD700860704753
:1020400001220168C0F8D824002280F8CC248869D5
:1020500040F000608861486D40F0805040F003021D
:1020600000204A6570470000002804BF0120704727
:10207000F0B581B00446056890F8950428B90020B1
:1020800084F89404204600F02DF90320B5F1A04F08
:1020900084F8950404BF0020A071206803F0DEF9E5
:1020A00094E80F00267C009602F064FE002840F0C1
:1020B00000812068002103F0D9F9002840F0F98060
:1020C00094F804E0BEF1000F00F0EC800EF0030C79
:1020D000BEF1040F4FF0000240D30EF0FC03A4F158
:1020E00090000321012500BFCE1E80F8A460A0F857
:1020F000BE608E1E80F8C860A0F8E2604E1E80F8B8
:10210000EC60A0F8066180F81011A0F82A110E1DED
:10211000013180F8A55080F8A820C0E92B22C0F832
:10212000B42080F8C95080F8CC20C0E93422C0F82F
:10213000D82080F8ED5080F8F020C0E93D22C0F8AA
:10214000FC2080F8115180F81421C0E94622C0F823
:102150002021903099423146C6D1F21EBCF1000FC9
:1021600031D004F1140002EBC20100EB8105012320
:1021700000F821200021BCF1010F6B706A832971E6
:10218000C5E9021129611ED0551C05EBC50600EBFF
:102190008607BCF1020F7B7000F826507D833971F1
:1021A000C7E9021139610ED0911C01EBC10200EBAD
:1021B0008203012500F8221000205D7059831871F8
:1021C000C3E902001861BEF1000F6BD0BEF1040F2D
:1021D0004FF0000236D30EF0FC000321234600BF6F
:1021E000CF1E83F854728F1E83F878724F1E83F8C7
:1021F000C0120D1D013183F8552283F85822C3E91E
:102200009722C3F8642283F8792283F87C22C3E9F9
:10221000A022C3F8882283F89D2283F89C7283F859
:10222000A022C3E9A922C3F8AC2283F8C12283F813
:10223000C422C3E9B222C3F8D02290338142294696
:10224000CED1EA1EBCF1000F2CD004F5157002EBC4
:10225000C20300EB83070021BCF1010F797000F885
:1022600023203971C7E9021139611BD0531C03EBDC
:10227000C30700EB8706BCF1020F717000F827302E
:102280003171C6E9021131610CD0911C01EBC10220
:1022900000EB820300275F7000F822101F71C3E972
:1022A00002771F6194E80F00277C009702F07CFE04
:1022B00030B1022084F89504012001B0F0BD00BFC8
:1022C00000206074012084F89504207B012802D14D
:1022D0002046FFF7B5FE206802F056FE002001B050
:1022E000F0BD0000F0B59DB0044600201C90CDE983
:1022F0001A00CDE9180001A804305821FEF707F9AB
:102300002068B0F1A04F01D01DB0F0BD4FF4807037
:10231000019001A800F03EF8002818BFFEF74AFA25
:10232000002743F630060097C4F202063068002406
:1023300040F0010030603068C4F2020400F0010097
:10234000009000984FF4E85018900220CDE919074A
:1023500003201B900A2018AD1C9020462946FFF749
:102360006BF94FF40070CDE91807204629461A97FB
:10237000FFF762F9706840F0800070600097706944
:1023800040F480407061706900F4804000900098D3
:102390001DB0F0BD2DE9F04381B00446006843F65E
:1023A0008C06C107C4F2020604D14FF00009810770
:1023B0000CD415E03168A26B21F0C061114331608B
:1023C000B2FA82F14FEA5119810709D53168E26BFF
:1023D00021F0C05111433160002A08BF4FF00109BC
:1023E000410705D44FF00008010712D420E000BFD8
:1023F0003168226B21F4401111433160B2FA82F14D
:102400004FEA5118B2F5801F08BF4FF001090107CC
:102410000ED53168626B21F440011143B2F5800F93
:10242000316008BF4FF00109002A08BF4FF00108D2
:1024300081065AD50020009056F84C0C47F2000750
:1024400040F0805046F84C0C56F84C0CC4F2000793
:1024500000F0805000900098386840F48070386038
:10246000FFF7C8F9054600BF3868C00506D4FFF776
:10247000C1F9401B0228F7D990E100BF56F81C0CA7
:1024800010F4407017D0216C01F44071884212D0D2
:1024900056F81C0C40F64061C4F24721012220F49A
:1024A00040700A6000220A6046F81C0C56F81C0CAA
:1024B000C00740F07B812068216C56F8842C4FF6D1
:1024C000FF4701F4407322F4F812C0F6FF770F4083
:1024D000B3F5407F08BF3A4346F8842C56F81C2CCD
:1024E0006FF31F31114346F81C1CC10610D40106BE
:1024F00019D441061FD4C10525D4810530D4410526
:1025000036D4B9F1010F18BFB0F5006F3CD062E0CE
:1025100094F8580040F64061C4F24721C1F8A00386
:1025200020680106E5D5B168E26C21F44001114351
:10253000B1604106DFD5B168A26C21F08061114322
:10254000B160C105D9D5B168626D21F00061114358
:10255000B160B2F1006F08BF4FF001088105CED520
:10256000B168626C21F080511143B1604105C8D55A
:10257000B268216D22F000520A43B0F5006FB260DC
:1025800018BFB1F1005F23D140F26809C4F24729B6
:102590000020C9F80000FFF72DF9054656F88C0C0D
:1025A000000105D5FFF726F9401B0228F6D9F5E012
:1025B0002068C10702D0A16B00296FD0810702D526
:1025C000E16B00296AD0410700F17D807FE000BF08
:1025D000B9F1010FD8D0B8F1000F4FF0000000F0B2
:1025E000DE806827C4F24727B860FFF703F9054685
:1025F00056F88C0C800005D5FFF7FCF8401B02282C
:10260000F6D9CBE02068410701D5216B19B101074C
:102610001AD5616BC1B956F8041CD4E9062301F43C
:102620004031656A114341EA831141EA0561D4F8FA
:102630002CC046F8041C31686FF0FF0221F4F851F9
:1026400002EB0C2211433160C00516D5606DB0F16C
:10265000006F12D156F8040C226AD4E9061300F078
:102660007060D2034FF6FF75AA430843A2F580328B
:1026700040EA8310104346F8040C0120B860FFF7CD
:10268000B9F8044656F88C0C800000F18B80FFF7F7
:10269000B1F8001B0328F5D380E000BF56F8081CF2
:1026A00056F8082CD4E9013501F4403102F070628B
:1026B00019436769114341EA851141EA077146F8F8
:1026C000081C410703D5216BB1F5801F05D0010718
:1026D0001FD5616BB1F5800F1BD156F8081C56F859
:1026E000082CD4E9013701F4403102F0E0421943EB
:1026F0002569114341EA871141EA0561D4F828C0F0
:1027000046F8081C3168ACF1010221F01F011143A9
:10271000316041051FD5216DB1F1005F1BD1271D2F
:1027200056F808CC56F8082CA8CFFF034FF6FF71D7
:1027300027EA01014FF0C06702F0E04207EA4C27A8
:1027400007F100771A433A43A1F5803142EA851236
:10275000114346F8081C000510D5271D8FCF40EA0D
:102760008110D1034FF6FF729143A1F5803140EA09
:102770000360084340EA077046F8080C0120C9F8D6
:102780000000FFF737F8054656F88C0C00013FF5BE
:1027900022AFFFF72FF8401B0228F5D9032001B024
:1027A000BDE8F083002001B0BDE8F083FFF722F818
:1027B000054641F2883700BF56F81C0C80073FF5EC
:1027C0007AAEFFF717F8401BB8424FF00300F3D979
:1027D000E5E70000002804BF012070472DE9F04123
:1027E00043F60808C4F202080446D8F8F8030D4678
:1027F00000F00F00884207D288F8F853D8F8F803A1
:1028000000F00F00A84277D12068810717D5410753
:1028100005D5D8F8001041F4E051C8F800100107C0
:1028200005D5D8F8001041F46041C8F80010D8F878
:102830000010A26821F0F0011143C8F80010C00791
:1028400040D1D8F8F80300F00F00A84207D988F863
:10285000F853D8F8F80300F00F00A8424CD12068D4
:10286000410707D5D8F80010E26821F4E051114380
:10287000C8F80010000708D5D8F80000216920F436
:10288000604040EAC100C8F8000000F07DF8D8F8C8
:10289000001045F64272C1F30311C0F60002515C0C
:1028A00040F2080220FA01F140F20400C2F20000F6
:1028B0000068C2F200021160FFF734FB0020BDE89F
:1028C000F08100BF6068811E022907D258F8081CF9
:1028D00089015CBF0120BDE8F08111E0012807D12A
:1028E00058F8081C89035CBF0120BDE8F08107E0AF
:1028F00058F8081C890703D40120BDE8F08100BF07
:10290000D8F8001021F003010843C8F80000FEF7D2
:1029100071FF064641F28837D8F80000616800F080
:102920000C00B0EB810F8CD0FEF764FF801BB84227
:10293000F2D90320BDE8F08140F2080043F6080117
:10294000C2F20000C4F202010068096845F6527242
:10295000C1F38221C0F60002515CC84070470000FC
:1029600040F2080043F60801C2F20000C4F202017E
:102970000068096845F65272C1F34231C0F60002A0
:10298000515CC8407047000010B543F60404C4F21F
:1029900002046068C0F3810142F20040C0F2F4001A
:1029A000DFE801F04202081841F20020C0F27A008C
:1029B00010BD00BF216801F03F0221682368490271
:1029C000C3F3881116D4A1FB00010023FDF784FC9A
:1029D00017E000BF216801F03F0221682368490227
:1029E000C3F3881114D4A1FB00010023FDF774FC8C
:1029F00015E000BF41F20020C0F27A004843B0FB6E
:102A0000F2F021680222C1F3014102EB410109E029
:102A100041F20020C0F27A004843B0FBF2F0216896
:102A2000C1F30271B0FBF1F010BD0000002804BF3B
:102A3000012070472DE9F04182B00446007843F64A
:102A40000006C007C4F202060CD0B06800F00C000B
:102A5000042840F089803068800303D5606800282E
:102A600000F050812078800723D5B06810F00C0F5B
:102A700011D0B06800F00C00082802D17068400244
:102A800009D5B06800F00C000C2840F09F807068F9
:102A9000400200F19B803068800703D5E068012880
:102AA00040F030813068216920F0F80040EAC10030
:102AB00030602078000713D4207840072AD4A56915
:102AC000002D00F01A81B06800F00C00082840F0DA
:102AD000AB80012D40F0E880012002B0BDE8F0811C
:102AE0006069002840F20000C4F2472000F08880AE
:102AF0000121C0F8801EFEF77DFE0546706F80073D
:102B0000DAD4FEF777FE401B0228F7D9032002B083
:102B1000BDE8F081306C5FEAC0080AD40020019063
:102B2000306C40F080503064306C00F08050019088
:102B3000019847F20007C4F200073868C00537D48F
:102B4000386840F480703860FEF754FE054600BFD8
:102B50003868C0052CD4FEF74DFE401B0228F7D97B
:102B6000032002B0BDE8F081B06800F00C00082836
:102B700003D1706840023FF56EAFB06800F00C0002
:102B80000C2803D1706840023FF565AF616830687A
:102B9000B1F5803F07D0B1F5A02F40F0CB8040F4D5
:102BA00080203060306840F480303060CBE000BF7F
:102BB000A168306F012905D0052957D140F00400E4
:102BC0003067306F40F00100306759E0E06800285E
:102BD00000F09C800020C4F2472001210160FEF734
:102BE00009FE0546306880073FF55CAFFEF702FE40
:102BF000401B02284FF00300F4D902B0BDE8F08179
:102C00000021C0F8801EFEF7F5FD0546706F8007B5
:102C10007FF552AFFEF7EEFD401B0228F6D90320E8
:102C200002B0BDE8F08100BF0027C4F247270020B2
:102C30003866FEF7DFFD022D05460BD130688001B6
:102C400040F19280FEF7D6FD401B02284FF00300B2
:102C5000F4D9D2E7306880014FD5FEF7CBFD401B99
:102C600002284FF00300F5D9C7E700BF20F00100AC
:102C70003067306F002920F00400306700F0988042
:102C8000FEF7B8FD054641F2883700BF306F800778
:102C900000F1A080FEF7AEFD401BB842F6D903203C
:102CA00002B0BDE8F08100BF7068E16900F4800205
:102CB0008A4227D1216A00F03F028A4222D147F698
:102CC000C071626A0140B1EB821F1BD1A16A4FF64D
:102CD000FF73C903994300F44032A1F580318A4261
:102CE00010D1E16A00F07062B2EB016F0AD1216B82
:102CF00000F0E040B0EB017F04D1002002B0BDE85D
:102D0000F08100BF012002B0BDE8F0810020C4F2D4
:102D1000472000210160FEF76DFD05463068800701
:102D20007FF5C7AEFEF766FD401B02284FF003009B
:102D3000F4D962E720F4803030603068002920F454
:102D40008020306050D0FEF755FD05463068800386
:102D50003FF588AEFEF74EFD401B6428F6D90320F0
:102D600002B0BDE8F08100BF04F11C052FCD246B3B
:102D7000084340EA8210D9034FF6FF729143A1F550
:102D8000803140EA0560084340EA04707060012029
:102D90003866FEF72FFD044630688001ADD4FEF79B
:102DA00029FD001B02284FF00300F5D925E700BFDD
:102DB000FEF720FD054641F2883700BF306F8007DF
:102DC00008D5FEF717FD401BB8424FF00300F5D9B8
:102DD00013E700BFB8F1000F3FF571AE306C20F083
:102DE000805030646BE600BFFEF704FD054600BF6F
:102DF000306880037FF536AEFEF7FCFC401B64288C
:102E00004FF00300F4D9F8E6411E0020B0EB116F3B
:102E10001CBF012070474EF21002CEF2000251603A
:102E20004EF62351CEF20001F0230B700721906083
:102E300011607047704700007047000090F83C2018
:102E4000012A04BF02207047B0B501F108053CCD4E
:102E5000D1E900CE23F47C5322F470521A432EF4AD
:102E6000F0431A432CF4E0431A4324F4C0431A43BA
:102E70002A43C96922F4804203681143596400213E
:102E800080F83C100020B0BD90F83C20012A4FF0A3
:102E9000020254D010B580F83D200268D2F804E058
:102EA000D2F808C00C682EF07003234341F2FF747F
:102EB000C4F20004A24253600EDC40F2FF73C4F27D
:102EC00000039A4216DCB2F1804F2BD040F200434F
:102ED000C4F2000324E000BF40F2FF33C4F2010358
:102EE0009A4213DC41F60003C4F200039A4219D05F
:102EF000002313E040F60003C4F200039A4211D00D
:102F000040F60043C4F200030AE000BF44F20003AD
:102F1000C4F201039A4205D040F20043C4F2010317
:102F20009A4204D149682CF0800319439160012131
:102F3000002280F83D1080F83C20BDE8104010468B
:102F400070470000002804BF0120704710B50446F8
:102F500090F83D0028B9002084F83C00204600F09D
:102F60001FF8022084F83D002068211D01F05EFD5D
:102F7000012084F8460084F83E0084F83F0084F87D
:102F8000400084F8410084F8420084F8430084F84B
:102F9000440084F8450084F83D00002010BD000086
:102FA000006841F20001C4F20001884218BF704776
:102FB00080B582B00020019043F64000C4F20200C8
:102FC0000168002241F0100101600068002100F05A
:102FD0001000019001983620FEF7F6FF362002B06F
:102FE000BDE88040FEF7DEBF7047000070B50446C4
:102FF0000068C5680669B10716D515F0020113D03F
:103000006FF002010161012121778069800703D0FF
:103010002046FFF7E9FF05E0204600F021F92046B1
:1030200000F0B8FA00202077700719D515F00400D9
:1030300016D020686FF004010161022121778069B8
:1030400010F4407F04D02046FFF7CEFF06E000BF1B
:10305000204600F005F9204600F09CFA0020207779
:10306000300717D515F0080014D020686FF008015C
:10307000016104212177C069800703D02046FFF752
:10308000B3FF05E0204600F0EBF8204600F082FA9E
:1030900000202077F00619D515F0100016D0206812
:1030A0006FF01001016108212177C06910F4407FA1
:1030B00004D02046FFF798FF06E000BF204600F04E
:1030C000CFF8204600F066FA00202077F00718BFFE
:1030D00015F0010002D1300609D412E020686FF02B
:1030E00001010161204600F0DFFA300609D515F034
:1030F000800006D020686FF0800101612046FFF754
:1031000099FE700609D515F0400006D020686FF0D2
:1031100040010161204600F0C9FAB00658BF70BDF9
:1031200015F0200008D021686FF0200220460A61C7
:10313000BDE87040FFF780BE70BD000080B586B06E
:10314000006840F2FF71C4F2000188424FF00001B4
:103150000591CDE90311CDE901111FDCB0F1804FDC
:1031600040D040F20041C4F20001884275D10020F5
:10317000009043F63000C4F20200016841F0010102
:1031800001600068022100F001000090009880209A
:1031900001900020C4F2020056E000BF40F600019A
:1031A000C4F20001884237D00021C4F201018842F4
:1031B00053D10020009043F63000C4F202000168B1
:1031C00041F0100101600068012100F01000009042
:1031D00000984FF4007001900020C4F2020000F546
:1031E000805031E00020009043F63000C4F202002D
:1031F000016841F0020101600068012100F0020055
:10320000009000984FF4806001900020C4F202000A
:1032100000F5806018E000BF0020009043F6300009
:10322000C4F20200016841F0080101600068022157
:1032300000F00800009000984FF4E040019000205A
:10324000C4F2020000F540600222029200220591C1
:1032500001A9CDE90322FEF7EFF906B080BD000019
:103260007047000090F83C30012B04BF02207047EB
:103270004FEAB202032A00F2FF802DE9F043DFE8B3
:1032800002F003B13F7F00BF036840F200461C6AB2
:103290001A6A24F0020422F001021A621A46D3F8D4
:1032A00004C052F818EF8F6843F48065C4F2010639
:1032B000B54244EA070405D1CF6824F00C0427F096
:1032C00004073C430F68B54206D1D1E905582CF4F8
:1032D00040762E4346EA080C2EF073063743C3F8B7
:1032E00004C09F614F6809695F631C629F6947F072
:1032F00008079F619F6927F004079F61B1E000BF45
:10330000036840F200481C6A1A6A24F4007422F42C
:1033100080721A621A46D3F804C052F81CEF8F6804
:1033200043F48065C4F20108454544EA072408D106
:10333000CF6840F2FF463F0224F4406427EA0606C5
:103340003443D1F80090454506D1D1E905562CF417
:1033500040572E4347EA061C2EF0730747EA090739
:10336000C3F804C0DF614F680969DF631C62DF696D
:1033700047F00807DF61DF6927F00407DF6170E0CD
:10338000036840F20045D3F820C01A6A43F480670E
:1033900022F480521A621A465C6852F81C8FD1F8E7
:1033A00000E08E68C4F20105AF4204D14D6924F4F7
:1033B000804444EA85142CF4005747EA063728F481
:1033C000E64646EA0E265C60DE614E6809691E64C8
:1033D0001F62DF6947F40067DF61DF6927F48067F8
:1033E000DF613DE0036840F200481C6A1A6A24F07D
:1033F000200422F010021A621A46D3F804C052F8D0
:1034000018EF8F6843F48065C4F20108454544EA2B
:10341000071407D1CF686FF0400624F0C00406EA15
:1034200007163443D1F80090454506D1D1E9055639
:103430002CF440672E4347EA860C2EF4E64747EA11
:103440000927C3F804C09F614F6809699F631C6224
:103450009F6947F400679F619F6927F480679F61B8
:1034600009021368194311600021BDE8F0430022EE
:1034700080F83C20084670470121002280F83C205B
:1034800008467047002804BF0120704710B5044665
:1034900090F83D0028B9002084F83C00204600F058
:1034A0001FF8022084F83D002068211D01F0BEFABB
:1034B000012084F8460084F83E0084F83F0084F838
:1034C000400084F8410084F8420084F8430084F806
:1034D000440084F8450084F83D00002010BD000041
:1034E00081B0006840F2FF71C4F20001884217DC2D
:1034F000B0F1804F2ED040F20041C4F2000188426A
:1035000045D10020009043F64000C4F2020001685B
:1035100041F002010160006800F0020035E000BFE8
:1035200040F60001C4F20001884221D00021C4F21B
:10353000010188422BD10020009043F64000C4F2E4
:103540000200416841F001014160406800F0010063
:103550001BE000BF0020009043F64000C4F20200D0
:10356000016841F001010160006800F001000CE019
:103570000020009043F64000C4F20200016841F0D0
:1035800004010160006800F004000090009801B0A0
:103590007047000070470000C1B1042908D0082915
:1035A00014BF41224022825C012A05D016E000BFF0
:1035B0003F22825C012A11D10222082910D004295D
:1035C00014BF80F8412080F83F200BE090F83E20A7
:1035D000012A03D1022280F83E2003E00120704737
:1035E00080F84020006801F01F010122036A02FAFE
:1035F00001F123EA01020262026A114341F2FF7201
:10360000C4F20002904201620CDC40F2FF71C4F28D
:103610000001884214DCB0F1804F37D040F2004105
:1036200016E000BF40F2FF31C4F20101884215DC10
:1036300041F60001C4F20001884227D0002115E0C4
:1036400040F60001C4F2000188421FD040F600415C
:10365000C4F20001884219D01FE000BF44F200010B
:10366000C4F20101884211D040F20041C4F20101CC
:10367000884212D1416C40F2004340F48062C4F2AF
:10368000010341F400419A42416406D1816801F08E
:103690000701062904BF00207047016841F00101BD
:1036A0000160002070470000704700007047000074
:1036B0007047000070470000B0B582B001680A682A
:1036C000CC684B6902F02F05202D04F0200505D1B0
:1036D00025B102B0BDE8B04001F050BA5FEA027C0B
:1036E0001EBF03F0010E04F4907313EB0E0341D1DF
:1036F000036BD50618D5012B16D114F0100313D087
:10370000002201920A6801924A680192019A49696D
:1037100049064BD4818DC28DC38D002B18BF9142B9
:1037200040F0F48102B0B0BD13062DD514F0800333
:103730002AD090F84120212AF4D18268B2F5805F26
:1037400003D10269002A00F06782026A531C0362F7
:1037500012784A60C28C013A1304C284E2D1C8686C
:1037600020F08000C860C86840F04000C86002B027
:10377000B0BD00BFD30718BF14F4807340F0D080F1
:10378000530700F1D380D8E05206CBD514F04002A5
:10379000C8D0CA6822F04002CA60202180F84110D7
:1037A00002B0BDE8B04000F0A1BB00BFC16B0A6829
:1037B000526893B2002BB5D0858DAB42B2D2C28590
:1037C000C969B1F5807F00F0A080016851E8031F4E
:1037D000026821F4807142E80313DBB1016851E80B
:1037E000031F026821F4807142E8031393B101685A
:1037F00051E8031F026821F4807142E803134BB1C2
:10380000016851E8031F026821F4807142E8031344
:10381000002BDAD1016851E8051F026821F001018F
:1038200042E80513BBB3016851E8051F026821F0A7
:10383000010142E8051373B3016851E8051F0268EE
:1038400021F0010142E805132BB3016851E8051F7F
:10385000026821F0010142E80513002BDAD11AE0D9
:10386000016851E8051F026821F0400142E8051394
:10387000DBB1016851E8051F026821F0400142E810
:10388000051393B1016851E8051F026821F040015A
:1038900042E805134BB1016851E8051F026821F0A9
:1038A000400142E80513002BDAD1202180F84210B4
:1038B00000210163016851E8031F026821F0100133
:1038C00042E80313DBB1016851E8031F026821F0ED
:1038D000100142E8031393B1016851E8031F026825
:1038E00021F0100142E803134BB1016851E8031FB6
:1038F000026821F0100142E80313002BDAD1C16BFA
:1039000004460846FDF736FC204602214163818DBE
:10391000C28D891A89B202B0BDE8B040FFF7C8BEB7
:10392000436C43F001034364530706D5BEF1000F17
:1039300003D0436C43F002034364930706D5BEF102
:10394000000F03D0436C43F004034364BCF1000F49
:1039500006D55EEA050303D0436C43F008034364D5
:10396000436C002B3FF4DEAE920605D525B104462C
:1039700001F004F9216820464969426C01F04001D8
:1039800002F00802891800F0B98000BF016851E810
:10399000031F026821F4907142E80313BBB301686E
:1039A00051E8031F026821F4907142E8031373B3D6
:1039B000016851E8031F026821F4907142E8031383
:1039C0002BB3016851E8031F026821F4907142E8AB
:1039D0000313002BDAD11AE0016851E8051F0268D1
:1039E00021F0010142E80513DBB1016851E8051F30
:1039F000026821F0010142E8051393B1016851E822
:103A0000051F026821F0010142E805134BB101686E
:103A100051E8051F026821F0010142E80513002B5F
:103A2000DAD1016B012924D1016851E8031F026832
:103A300021F0100142E80313DBB1016851E8031FD4
:103A4000026821F0100142E8031393B1016851E8C4
:103A5000031F026821F0100142E803134BB1016813
:103A600051E8031F026821F0100142E80313002B04
:103A7000DAD1202180F842100021016301684969F0
:103A8000490640F1C380016851E8051F026821F032
:103A9000400142E80513DBB1016851E8051F0268E7
:103AA00021F0400142E8051393B1016851E8051F78
:103AB000026821F0400142E805134BB1016851E86A
:103AC000051F026821F0400142E80513002BDAD1FE
:103AD000C16B002900F09A8044F67132C0F60002F2
:103AE000044608460A65FDF78DFB00283FF41AAE30
:103AF000E06B016D02B0BDE8B04008470446FFF737
:103B0000D9FD0020606402B0B0BD00BF891A00BFBB
:103B1000026852E8032F036822F4907243E80325F9
:103B2000BDB3026852E8032F036822F4907243E8A1
:103B3000032575B3026852E8032F036822F49072DC
:103B400043E803252DB3026852E8032F036822F4EB
:103B5000907243E80325002DDAD11AE0026852E89A
:103B6000052F036822F0010243E80525DDB1026854
:103B700052E8052F036822F0010243E8052595B1BC
:103B8000026852E8052F036822F0010243E8052588
:103B90004DB1026852E8052F036822F0010243E8A4
:103BA0000525002DDAD1202280F842200022026370
:103BB000026852E8032F036822F0100243E803254D
:103BC000DDB1026852E8032F036822F0100243E8D7
:103BD000032595B1026852E8032F036822F0100212
:103BE00043E803254DB1026852E8032F036822F031
:103BF000100243E80325002DDAD1022289B2426384
:103C000002B0BDE8B040FFF753BD00BF02B0BDE851
:103C1000B040FFF74FBD00BF026A32F8023B6FF3BE
:103C20005F234B60026295E5002804BF01207047C6
:103C300010B5044690F8410028B9002084F84000EF
:103C4000204600F021F8242084F841002068C16853
:103C500021F40051C160204601F010F8206801698C
:103C600021F490410161416921F02A014161C1685B
:103C700041F40051C16000202021606484F84110AB
:103C800084F84210606310BDF0B587B0044644F676
:103C900000002168C4F20000002681420696CDE9AA
:103CA00004660396029601D007B0F0BD43F63001DA
:103CB0000196C4F202010A69032742F480220A61D4
:103CC0000A6900F5E23002F480220192019A01961D
:103CD0000A6842F008020A60096801F008010191CF
:103CE00001994FF4407102910221CDE90316072199
:103CF000069102A90597FDF79FFC40F2881546F250
:103D00005800C2F20005C4F202004FF000614022E8
:103D100085E8470004204FF48063C5E90860284621
:103D2000C5E90436C5E90666C5E90A762E63FDF7DE
:103D30005DFB002818BFFCF73DFD27200021002275
:103D4000A563AC63FEF740F92720FEF72BF907B017
:103D5000F0BD0000704700002DE9F04381B004463B
:103D600090F84100202809D100294FF0010018BF28
:103D7000002A07D101B0BDE8F08300BF022001B0E6
:103D8000BDE8F0830020606421201D460E4684F8C3
:103D900041001746FDF72EFDA784E784A168814600
:103DA000B1F5805F02D1206900285DD03746002040
:103DB000E28C2168002A5DD06A1C24D0002D4AD0F4
:103DC000804600BF0868000608D4FDF713FDA0EB8D
:103DD0000900A8427AD82168C868F3E717B117F834
:103DE000010B04E038F8020B00276FF35F204860F6
:103DF000E08C0138E084E08C0028E3D13AE000BF99
:103E00000A68120609D40A68120606D40A6812065D
:103E10005CBF0A685FEA0262F2D51FB117F8012B96
:103E200005E000BF30F8022B00276FF35F224A60E5
:103E3000E28C013AE284E28C002AE4D11AE000BF6D
:103E400030F8022B00276FF35F224A60E28C013AC0
:103E5000E284E28C72B10A68120635D5002FEFD0E9
:103E600017F8012BF1E700BF00273046E28C2168EC
:103E7000002AA1D1086840061ED42DB3681C14D1B5
:103E8000086840062AD40868400627D40868400617
:103E900024D4086840064FF00000F1D50DE000BFC3
:103EA0002068C1680068400618D4FDF7A3FCA0EBA9
:103EB0000900A842F4D909E00020202184F841102B
:103EC00001B0BDE8F08300BFFDF794FC0320202182
:103ED00084F8411001B0BDE8F08300BF002020212C
:103EE00084F8411001B0BDE8F08300007047000085
:103EF000FEE7000070B50368044653F8140F40074E
:103F000011D40E46481C29D086BB00BF1868400556
:103F100027D4FDF76FFC236853F8140F400737D5FB
:103F200018684007F2D5002070BD00BF1868400730
:103F3000F9D41868400514D418684007F3D41868F9
:103F400040050ED418684007EDD41868400508D421
:103F5000186840074FF0000048BF70BD1868400562
:103F6000E4D56FF480601860042012E0154603E089
:103F700053F8140F4007D6D418684005F1D4FDF764
:103F800039FC401B2368B042F2D958694007EFD48E
:103F9000202000212022216384F83D2084F83E1057
:103FA000226C10432064012084F83C1070BD000096
:103FB0002DE9F041054600681E46144601F47F02D3
:103FC00001338FB242D0DDF81880B2F5803F40F067
:103FD000878040693840C01BB0FA80F04009A04299
:103FE00040F0C8804EB924E040693840C01BB0FAA8
:103FF00080F04009A04240F0BD80FDF7FBFBA0EB44
:1040000008012868B142EFD941693940C91BB1FAAA
:1040100081F14909A142E7D19BE000BF40693840E6
:10402000C01BB0FA80F04009A0424FF0000040F001
:10403000A280FDF7DFFB286841693940C91BB1FA4E
:1040400081F14909A142E9D183E000BFB2F5803F87
:1040500024D100BF41693940C91BB1FA81F1490936
:10406000A14240F0878041693940C91BB1FA81F112
:104070004909A14240F07E8041693940C91BB1FA2B
:1040800081F14909A14275D141693940C91BB1FA91
:1040900081F14909A142DDD06CE000BF816939405E
:1040A000C91BB1FA81F14909A14263D18169394043
:1040B000C91BB1FA81F14909A1425BD1816939403B
:1040C000C91BB1FA81F14909A14253D18169394033
:1040D000C91BB1FA81F14909A142DFD04AE000BF12
:1040E00080693840C01BB0FA80F04009A04241D13D
:1040F00046B923E080693840C01BB0FA80F040091F
:10410000A04237D1FDF776FBA0EB08012868B14249
:10411000F0D981693940C91BB1FA81F14909A1423D
:10412000E8D116E080693840C01BB0FA80F0400941
:10413000A0424FF0000018BFBDE8F081FDF75AFB28
:10414000286881693940C91BB1FA81F14909A14246
:10415000E8D100202021286385F83D1085F83E0035
:10416000296C41F02001296485F83C000120BDE85C
:10417000F08100BF0020BDE8F0810000F0B581B003
:10418000044600681D4643698FB203EA0701B9423D
:1041900002D1002001B0F0BD4169164601323CD089
:1041A000490512D47EB300BFFDF724FB411B2068F4
:1041B000B14203D941693940B9422BD141693940F3
:1041C000B942E6D041694905EED5016841F4007174
:1041D00001606FF48061416104200021202221638D
:1041E00084F83D2084F83E10226C1043206484F84B
:1041F0003C10012001B0F0BD41693940B942C8D03E
:1042000041694905E1D4FDF7F5FA20684169394073
:10421000B942F1D02020E0E741694905D5D4416990
:104220003940B942B5D041694905CED441693940D8
:10423000B942AED041694905C7D441693940B94254
:10424000A7D041694905C0D441693940B942E3D199
:104250009FE7000070B504460068154650F8143F0B
:104260005A063DD40E4629B926E000BF50F8141F67
:10427000490635D40168C90621D4FDF7BBFA411BB4
:104280002068B142F2D941694906EFD400202021CB
:10429000206384F83D1084F83E00206C40F020003C
:1042A00018E000BFFDF7A6FA206850F8141F490671
:1042B000ECD50168490613D40168C906F2D56FF040
:1042C0001001016000202021206384F83D1084F853
:1042D0003E00206C2064002084F83C00012070BD6A
:1042E000002070BD70B50368044653F8140F000633
:1042F00011D40E46481C29D086BB00BF1868400563
:1043000027D4FDF777FA236853F8140F000637D542
:1043100018680006F2D5002070BD00BF18680006BE
:10432000F9D41868400514D418680006F3D4186846
:1043300040050ED418680006EDD41868400508D46E
:10434000186800064FF0000048BF70BD18684005AF
:10435000E4D56FF480601860042012E0154603E095
:1043600053F8140F0006D6D418684005F1D4FDF7B1
:1043700041FA401B2368B042F2D958690006EFD4D5
:10438000202000212022216384F83D2084F83E1063
:10439000226C10432064012084F83C1070BD0000A2
:1043A00080B540F2D8000021C2F20000C5F205013C
:1043B000002220234FF0800C80E80E10C0E9042278
:1043C0008261C0E90822C0E90A220263FCF74CFAC4
:1043D000002808BF80BD72B6FEE7000080B582B03D
:1043E000002043F630010190C4F202010A6842F451
:1043F00080020A600A6802F480020192019A009029
:104400000868002240F4001008600868002100F4E9
:104410000010009000980E20FDF7D6FD0E20FDF74D
:10442000C1FD392000210022FDF7CEFD392002B068
:10443000BDE88040FDF7B6BD2DE9F04F87B00025FF
:1044400043F630000695CDE90455CDE902550195B6
:10445000C4F20200016841F6000841F01001016059
:104460000168C4F2020801F010010191019901955F
:104470000168A8F5C05941F00401016001680022FB
:1044800001F0040101910199019501684FF0080ABA
:1044900041F020010160016801F0200101910199C2
:1044A0000195016841F080010160016801F080011F
:1044B000019101990195016841F0010101600168D4
:1044C00001F00101019101990195016841F002019A
:1044D0000160016801F002010191019901950168F3
:1044E00041F008010160016801F0080101910199A2
:1044F0000195016841F0400101600068082100F069
:104500004000019001984846FDF76EF9A8F5A05BC0
:10451000584644F2BB010022FDF766F9A8F5806712
:1045200038464FF480410022FDF75EF940464021B5
:104530000022FDF759F94FF4005002904FF4881013
:1045400002ACCDE90305A8F580502146FDF774F8CB
:10455000012648462146CDF808A0CDE9036505951A
:10456000FDF76AF844F2BB00CDE902065846214641
:10457000CDE90455FDF760F84FF48040CDE902061F
:1045800038462146CDE90455FDF756F84020CDE9DF
:10459000020640462146CDE90455FDF74DF880203E
:1045A000CDE90205404621460495FDF745F828204F
:1045B00000210022FDF708FD2820FDF7F3FC07B0DD
:1045C000BDE8F08F80B540F2E81045F60001C2F278
:1045D0000000C4F2000148F2A06200234FF4804CB6
:1045E000C0F2010280E80E00C0E9033CC0E90533D7
:1045F000C0E90733FDF704F9002808BF80BD72B693
:10460000FEE7000010B592B040F2207000220021B9
:10461000C2F20000C4F2010214238024CDE910117B
:104620000791C0E90021C0E90213C0E904118461C7
:10463000FEF728FF10B172B6FEE700BF40F220700F
:10464000C2F2000010A9FEF71FFC18B172B600BF3D
:10465000FEE700BF602009900A200A9040F2207017
:104660000024C2F2000009A90022CDE90B44CDE9E3
:104670000D440F94FEF7F6FD10B172B6FEE700BFD1
:104680004FF40050069040F22070C2F2000001A9E1
:104690000594CDE90344CDE901440894FEF7CEFB2F
:1046A00010B172B6FEE700BF40F22070C2F2000007
:1046B000FEF744FD12B010BD80B58AB040F26870BC
:1046C0000021C2F200004FF08042532340F2CF7C21
:1046D000CDE90811CDE90611CDE90411C0E90023A7
:1046E000C0E9021C01618161FEF7CCFE10B172B617
:1046F000FEE700BF40F26870C2F2000008A9FEF7B2
:10470000C3FB18B172B600BFFEE700BF6020019086
:104710000020CDE90200059040F26870C2F200006E
:1047200001A90822FEF79EFD10B172B6FEE700BF98
:1047300040F26870C2F20000FEF700FD0AB080BDD2
:1047400080B58AB040F2B07040F200420021C2F25F
:104750000000C4F20002532340F2CF7CCDE90811DF
:10476000CDE90611CDE90411C0E90023C0E9021C1E
:1047700001618161FEF786FE10B172B6FEE700BFEF
:1047800040F2B070C2F2000008A9FEF77DFB18B13C
:1047900072B600BFFEE700BF602001900020CDE9A7
:1047A0000200059040F2B070C2F2000001A904229C
:1047B000FEF758FD10B172B6FEE700BF40F2B070D0
:1047C000C2F20000FEF7BAFC0AB080BD80B58AB024
:1047D00040F2F87040F600020021C2F20000C4F27C
:1047E0000002532344F61F6CCDE90811CDE90611F0
:1047F000CDE90411C0E90023C0E9021C0161816117
:10480000FEF740FE10B172B6FEE700BF40F2F8704E
:10481000C2F2000008A9FEF737FB18B172B600BF5C
:10482000FEE700BF602001900020CDE90200059066
:1048300040F2F870C2F2000001A90022FEF712FD5A
:1048400010B172B6FEE700BF40F2F870C2F200008D
:1048500001A90422FEF706FD10B172B6FEE700BF03
:1048600040F2F870C2F2000001A90822FEF7FAFC3B
:1048700010B172B6FEE700BF40F2F870C2F200005D
:10488000FEF75CFC0AB080BD80B582B040F6400007
:1048900041F200020021C2F20000C4F200024FF611
:1048A000FF73CDE90011C0E90021C0E90213816165
:1048B000FEF748FB10B172B6FEE700BF40F64000BD
:1048C000C2F200006946FEF7DFFA18B172B600BF07
:1048D000FEE700BF02B080BD80B540F6880044F618
:1048E0000001C2F20000C4F2000100234FF00C0CE2
:1048F0004FF4E13280E80E00C0E90333C0E905C39C
:10490000C361FFF791F9002808BF80BD72B600BFF0
:10491000FEE7000080B540F23C20C2F200004FF0FC
:10492000A0410160062101714FF40071C1804FF474
:104930008171C0F809100121C181FDF795FB0028A4
:1049400008BF80BD72B600BFFEE70000FEE70000B2
:10495000FEE700007047000070470000FDF7B8BA9E
:1049600070B594B007AC20463421FBF7D0FD00258C
:1049700043F640000695CDE90455CDE90255019571
:10498000C4F202000168022641F080510160006813
:1049900000F080500190019847F200000195C4F2A8
:1049A0000000016841F440410160006800F44040AB
:1049B00001900198012007904FF4A02008904FF437
:1049C00080000E9004200F90A820CDE9100607204B
:1049D000CDE9120620460D96FEF728F810B172B602
:1049E000FEE700BF0F20CDE902064FF4A05005906E
:1049F0004FF48050069002A805210495FDF7EAFEC9
:104A000010B172B6FEE700BF14B070BD4EF688500C
:104A1000CEF20000016841F47001016070470000AF
:104A200040F64000C2F20000FEF7E0BA10B540F6D2
:104A3000FF3E0368C4F2000E40F2004C7045C4F221
:104A4000010C25DCB0F1804F2FD040F20042C4F2BF
:104A50000002904229D040F60002C4F200029042C7
:104A600023D041F6FF72C4F20002904227DC704569
:104A70003ADCB0F1804F5BD040F20042C4F2000259
:104A8000904255D040F60002C4F200024EE000BF52
:104A900040F60042C4F20002904206D0604504D0C5
:104AA0000022C4F201029042DBD14A6823F0700375
:104AB000134341F6FF72C4F200029042D7DD43F681
:104AC000FF72C4F20102904220DC42F20002C4F202
:104AD000000290422CD00022C4F20102904227D062
:104AE000604525D028E000BF40F60042C4F2000235
:104AF00090421DD041F60002C4F20002904217D04D
:104B000041F60042C4F2000210E000BF44F200028D
:104B1000C4F2010290420BD044F60002C4F201023A
:104B2000904205D044F20042C4F20102904203D107
:104B3000CA6823F44073134323F080024B69D1F811
:104B400000E08C681A430260C46240F48062C0F8DE
:104B500028E0624504BF09690163012141610169DF
:104B6000C90708BF10BD016921F00101016110BD35
:104B7000806B0021C185C184FEF79CBD81B090F897
:104B80004210222921D183680246B3F5805F09D102
:104B900052F8281F52F8183C002B63D003685B685A
:104BA0000AE000BF52F8281F13B90369002BF5D0A3
:104BB00003685B6803F07F030B70116801311160BB
:104BC000C18D01390A04C18502D001B0704700BF10
:104BD0000168CA6822F02002CA60CA6822F48072A2
:104BE000CA604A6922F001024A61202180F842101D
:104BF00000214163026B012A3CD10163016851E845
:104C0000031F026821F0100142E80313DBB10168C1
:104C100051E8031F026821F0100142E8031393B129
:104C2000016851E8031F026821F0100142E80313F4
:104C30004BB1016851E8031F026821F0100142E8FE
:104C40000313002BDAD101680A68D20606D50022C8
:104C500000920A680092496800910099818D01B024
:104C6000FEF726BD026852686FF35F2221F8022B1F
:104C70008162A5E701B0FFF76DB80000B0B504464A
:104C8000006804F108030ECB0569194325F440556B
:104C90002A4302616269E3691143C268194349F218
:104CA0000C639A431143C1604169A26921F44071C8
:104CB00041F20043114340F48062C4F201039A427E
:104CC000416103D1FDF74CFE02E000BFFDF734FE69
:104CD000E1694FF69C7563681922C0F6FF75B1F55E
:104CE000004FA0FB02011FD15A00DB0FFBF7F4FAC3
:104CF00048F21F51C5F2EB11A0FB01235A0905F13F
:104D0000805302FB0300322303EBC000A0FB010130
:104D10004FF4F87000EA111000EB0210C1F34211D9
:104D2000084421688860B0BD9A009B0FFBF7D4FA55
:104D300048F21F51C5F2EB11A0FB01235A0902FBF7
:104D40000500322303EB0010A0FB0101F02000EA74
:104D5000511000EB0210C1F3431108442168886030
:104D6000B0BD000040F68800C2F200000168C968CA
:104D7000FEF7A2BC82B002F47F42B2F5807F40F021
:104D80007F80826B4FF6BF7322F480328263C268E9
:104D9000CFF6BD731A40C260029BC268DBB222F438
:104DA0004012012BC26003D1C26842F48012C2607B
:104DB00000220092009A01320092009AB2F1706FC4
:104DC00000F2BE800269002A21D4009A01320092CA
:104DD000009AB2F1706F00F2B3800269002A16D413
:104DE000009A01320092009AB2F1706F00F2A8802E
:104DF0000269002A0BD4009A01320092009AB2F1A3
:104E0000706F00F29D800269B2F1FF3FD2DC002298
:104E10000092026942F001020261009A013200929E
:104E2000009AB2F1706F00F28B800269D2071ED037
:104E3000009A01320092009AB2F1706F00F2808005
:104E40000269D20713D0009A01320092009AB2F19F
:104E5000706F75D80269D20709D0009A01320092AA
:104E6000009AB2F1706F6BD80269D207D5D14FF0BA
:104E7000000C01F47F01B1F5803F40F0818077E0C4
:104E8000C26842F04002C26000220192019A0132DF
:104E90000192019AB2F1706F5AD80269002A1ED4A9
:104EA000019A01320192019AB2F1706F50D80269F1
:104EB000002A14D4019A01320192019AB2F1706F62
:104EC00046D80269002A0AD4019A01320192019A55
:104ED000B2F1706F3CD80269B2F1FF3FD6DC00221C
:104EE0000192026942F001020261019A01320192CB
:104EF000019AB2F1706F2BD80269D2071DD0019AC6
:104F000001320192019AB2F1706F21D80269D20781
:104F100013D0019A01320192019AB2F1706F17D841
:104F20000269D20709D0019A01320192019AB2F1C5
:104F3000706F0DD80269D207D7D14FF0000C09E08D
:104F40004FF0030C01F47F01B1F5803F18D10FE061
:104F50004FF0030C826B13F47F4F14BF22F48032A6
:104F600042F48032826301F47F01B1F5803F07D1C2
:104F7000816841F006018160816841F02001816013
:104F8000604602B0704700000146D0F8000E20F0E5
:104F90000300C1F8000ED1F8040840F0020200201E
:104FA000C1F80428704700002DE9F04F86B0C3F324
:104FB000074516468E460021C0F80411C0F80811B6
:104FC000C0F80C11C0F81011C0F81411C0F8181175
:104FD000C0F81C11C0F82011C0F82411C0F8281125
:104FE000C0F82C11C0F83011C0F83411C0F83811D5
:104FF000C0F83C1125B100F138014FF400120FE068
:10500000D0F80418802241F00201C0F80418816B26
:1050100021F400118163016841F040010160014603
:105020000B681A430A6006F47F420021B2F5807FC4
:10503000C0F8001E08D1D0F80028B1EB1E6F09D1CE
:10504000C0F800280AE000BFD0F8001841F00301C2
:1050500002E000BF42F00101C0F8001800210491F5
:105060000499013104910499B1F1706F52D801692A
:1050700000291ED40499013104910499B1F1706F93
:1050800048D80169002914D4049901310491049984
:10509000B1F1706F3ED8016900290AD40499013139
:1050A00004910499B1F1706F34D80169B1F1FF3FF7
:1050B000D6DC002104914FF484610161049901312F
:1050C00004910499B1F1706F24D8016989061DD546
:1050D0000499013104910499B1F1706F1AD80169F2
:1050E000890613D50499013104910499B1F1706FC7
:1050F00010D80169890609D50499013104910499F0
:10510000B1F1706F06D801698906D7D44FF0000A53
:1051100002E000BF4FF0010A00210591059901311D
:1051200005910599B1F1706F4ED8016900291ED41F
:105130000599013105910599B1F1706F44D8016964
:10514000002914D40599013105910599B1F1706FC9
:105150003AD8016900290AD40599013105910599C8
:10516000B1F1706F30D80169B1F1FF3FD6DC002199
:105170000591102101610599013105910599B1F160
:10518000706F21D80169C90620D5059901310591B3
:105190000599B1F1706F17D80169C90616D505993F
:1051A000013105910599B1F1706F0DD80169C906FA
:1051B0000CD50599013105910599B1F1706F03D8AE
:1051C0000169C906D7D401E04FF0010A5FFA8EF9F0
:1051D0004FF00008B9F1000FC0F81088C0F814882B
:1051E000C0F81C8800F00D81CDF80CA0CDE9015E5F
:1051F000D0F800194FF0006404EA11114FF67F3522
:10520000B9F1010BC0F80019C0F81089C0F80859AD
:1052100074D0A9F1020103290BF0030A04D2012181
:10522000BAF1000F40D169E000962BF0030700F5BA
:10523000186600234FF0904C4FF67F324FF0000E6F
:1052400056F8601C0EF1040E0CEAE17146F8601C81
:1052500046F8503C46F8582C56F8401C77450CEA66
:10526000E17146F8401C46F8303C46F8382C56F8B8
:10527000201C0CEAE17146F8201C46F8103C46F868
:10528000182C31680CEAE17131603361B26006F1CB
:105290008006D5D1009E0EF101014FF67F354FF00B
:1052A0000064BAF1000F29D000F510634F01B44635
:1052B000DE594FF0904202EAE67603EB4111DE51EF
:1052C000664600274FF67F33BAF1010F0F618B60FE
:1052D00014D00E6ABAF1020F02EAE67266460A625A
:1052E0000F638B620AD00A6C4FF0904303EAE272BC
:1052F0000A6400220A654FF67F328A64D0F8001BE8
:10530000BBF1000F04EA1111C0F8001B4FF00001BF
:10531000C0F8101BC0F8085BDDE9015EDDF80CA0E9
:105320006FD0A9F1020103290BF0030C04D2012173
:10533000BCF1000F3BD164E0A94600962BF00305B9
:1053400000F5386600234FF090474FF67F3200217A
:1053500056F8604C043107EAE47446F8604C46F8AD
:10536000503C46F8582C56F8404C8D4207EAE474FD
:1053700046F8404C46F8303C46F8382C56F8204C5D
:1053800007EAE47446F8204C46F8103C46F8182C1E
:10539000346807EAE47434603361B26006F1800671
:1053A000D6D1009E01314D46BCF1000F29D000F549
:1053B00030634F013446DE594FF0904202EAE67600
:1053C00003EB4111DE51264600274FF67F33BCF137
:1053D000010F0F618B6014D00E6ABCF1020F02EA5C
:1053E000E67226460A620F638B620AD00A6C4FF09F
:1053F000904303EAE2720A6400220A654FF67F32A4
:105400008A64D0F810181EF47F0F21F48071C0F860
:1054100010186FF08041C0F81880416103D1816994
:1054200041F010018161816943F60002C8F23C023B
:10543000114316F47F0F816103D0816941F00801A7
:105440008161012D05D1816941F0804141F0040164
:105450008161504606B0BDE8F08F000001468068CB
:1054600020F0010200208A6070470000B0B50446B9
:10547000C068002920F0C040E06000F09980012958
:1054800040F0B080E0680A2540F00050E0600A205B
:10549000FCF7B0F854F8140FC00740F09C800A20C5
:1054A000FCF7A8F82068C00740F09E800A20FCF7AF
:1054B000A1F82068C00740F0A5800A20FCF79AF800
:1054C0002068C00740F0AC800A20FCF793F8206801
:1054D000C00740F0B3800A20FCF78CF82068C007B2
:1054E00040F0BA800A20FCF785F82068C00740F039
:1054F000C1800A20FCF77EF82068C00740F0C88011
:105500000A20FCF777F82068C00740F0CF800A2017
:10551000FCF770F82068C00740F0D6800A20FCF73E
:1055200069F82068C00740F0DD800A20FCF762F8C7
:105530002068C00740F0E4800A20FCF75BF8206890
:10554000C00740F0EB800A20FCF754F82068C00741
:1055500040F0F2800A20FCF74DF82068C00740F0C8
:10556000F9800A20FCF746F82068C00740F0008167
:105570000A20FCF73FF82068C00740F007810A20A6
:10558000FCF738F82068C00740F00E810A20FCF7CD
:1055900031F82068C00740F016810A20FCF72AF88D
:1055A0002068C825A5F1C800B0FA80F04009B0BD58
:1055B000E0680A2540F08040E0600A20FCF71AF815
:1055C00054F8140FC00706D00A20FCF713F820681F
:1055D000C00711D11425A5F1C800B0FA80F0400928
:1055E000B0BD00BF0120B0BD1425A5F1C800B0FAC0
:1055F00080F04009B0BD00BF0A20FBF7FBFF206828
:10560000C00707D11E25A5F1C800B0FA80F04009F7
:10561000B0BD00BF0A20FBF7EDFF2068C00707D12F
:105620002825A5F1C800B0FA80F04009B0BD00BF40
:105630000A20FBF7DFFF2068C00707D13225A5F15C
:10564000C800B0FA80F04009B0BD00BF0A20FBF7E7
:10565000D1FF2068C00707D13C25A5F1C800B0FAEA
:1056600080F04009B0BD00BF0A20FBF7C3FF2068EF
:10567000C00707D14625A5F1C800B0FA80F040095F
:10568000B0BD00BF0A20FBF7B5FF2068C00707D1F7
:105690005025A5F1C800B0FA80F04009B0BD00BFA8
:1056A0000A20FBF7A7FF2068C00707D15A25A5F1FC
:1056B000C800B0FA80F04009B0BD00BF0A20FBF777
:1056C00099FF2068C00707D16425A5F1C800B0FA8A
:1056D00080F04009B0BD00BF0A20FBF78BFF2068B7
:1056E000C00707D16E25A5F1C800B0FA80F04009C7
:1056F000B0BD00BF0A20FBF77DFF2068C00707D1BF
:105700007825A5F1C800B0FA80F04009B0BD00BF0F
:105710000A20FBF76FFF2068C00707D18225A5F19B
:10572000C800B0FA80F04009B0BD00BF0A20FBF706
:1057300061FF2068C00707D18C25A5F1C800B0FA29
:1057400080F04009B0BD00BF0A20FBF753FF20687E
:10575000C00707D19625A5F1C800B0FA80F040092E
:10576000B0BD00BF0A20FBF745FF2068C00707D186
:10577000A025A5F1C800B0FA80F04009B0BD00BF77
:105780000A20FBF737FF2068C00707D1AA25A5F13B
:10579000C800B0FA80F04009B0BD00BF0A20FBF796
:1057A00029FF2068C00707D1B425A5F1C800B0FAC9
:1057B00080F04009B0BD00BF0A20FBF71BFF206846
:1057C000C0077FF4EAAEBE25A5F1C800B0FA80F0AC
:1057D0004009B0BDFEE700002DE9F04F87B040F66C
:1057E000D000C2F2000043F68C1100EB010A4FF02A
:1057F000000B4FF0000E4FF0000800234FF000099F
:105800000020CDE9050006E004980AF5AE7A0130E3
:105810003C2800F0A9800026049004E009F1010969
:105820000636782EF0D00AEB060434F8021C01F09C
:105830001F07C80A0A2FC1F3841598BF0A281FD969
:1058400005F1050C8344AE44B8440133844507F1A7
:10585000050138BF814217D30530A84238BFA9429D
:1058600016D3B8424FF000004FF0000138BF0120BE
:10587000BC4538BF012108400699014406910BE060
:105880000B2D09D3DCE700BF09F1010904E000BFDB
:1058900005980130059000BF3AF8061001F01F0787
:1058A000C80A0A2FC1F3841598BF0A281ED9691D9A
:1058B0008344AE44B8440133814207F1050238BF46
:1058C000824217D30530A84238BFAA4216D3B84245
:1058D0004FF0000038BF0120B9424FF0000138BF3F
:1058E000012108400699014406910BE00B2D09D3D4
:1058F000DDE700BF09F1010904E000BF05980130B0
:10590000059000BF618801F01F04C80A0A2CC1F38A
:10591000841598BF0A281FD9691D8344AE44A0444A
:105920000133814204F1050238BF8242FFF476AFB1
:105930000530A84238BFAA4212D3A0424FF000005F
:1059400038BF0120A1424FF0000138BF01210840BB
:1059500006990144069163E70B2DFFF461AFDBE785
:105960000598013005905BE705980521069C1FFA14
:1059700089F91FFA80FA11FA80F040F2700C48455C
:10598000C2F2000CA6B2059606D211FA84F24A457C
:1059900002D2022027E000BF09F10505554505D2D6
:1059A00011FA84F1514501D204201CE0B04238BF05
:1059B000B54217D347F26F70C0F26E00CCF80F00FB
:1059C00046F66E30C6F66E7047F2752146F6637283
:1059D000C7F22051C6F66C72CCF80C000120CCE95D
:1059E000012100E0032040F20C01C2F200010CF1A1
:1059F00004059AB208802846B8FBF2F6BEFBF2F422
:105A0000BBFBF2F7FAF764FD40F68808C2F2000823
:105A100082B2404629464FF0FF33FEF79DF9E0B2CF
:105A2000F1B2CDE9000A0291FAB246F26001059F97
:105A3000C0F6000128464B460397FAF7C5FC2846F6
:105A4000FAF746FD82B2404629464FF0FF3307B0D1
:105A5000BDE8F04FFEF780B940F20044C4F2020402
:105A6000FCF744FAFEF77CFFFEF7E6FCFEF7B6FC17
:105A7000FEF796FCFEF730FFFEF74CFFFEF7A2FDA7
:105A8000FEF7C0FDFEF700FFFEF716FEFEF758FE1C
:105A9000FEF79CFE40F22070C2F200000021FDF7EC
:105AA0007BFD00F0EDF96420FBF7A4FD40F2687582
:105AB000C2F2000528460821FDF76EFD40F2B076DF
:105AC000C2F2000630460421FDF766FD40F2F87789
:105AD000C2F2000738460021FDF75EFD384604217A
